{"abi":[{"type":"constructor","inputs":[{"name":"initialOwner","type":"address","internalType":"address"}],"stateMutability":"nonpayable"},{"type":"function","name":"approve","inputs":[{"name":"to","type":"address","internalType":"address"},{"name":"tokenId","type":"uint256","internalType":"uint256"}],"outputs":[],"stateMutability":"nonpayable"},{"type":"function","name":"balanceOf","inputs":[{"name":"owner","type":"address","internalType":"address"}],"outputs":[{"name":"","type":"uint256","internalType":"uint256"}],"stateMutability":"view"},{"type":"function","name":"getApproved","inputs":[{"name":"tokenId","type":"uint256","internalType":"uint256"}],"outputs":[{"name":"","type":"address","internalType":"address"}],"stateMutability":"view"},{"type":"function","name":"isApprovedForAll","inputs":[{"name":"owner","type":"address","internalType":"address"},{"name":"operator","type":"address","internalType":"address"}],"outputs":[{"name":"","type":"bool","internalType":"bool"}],"stateMutability":"view"},{"type":"function","name":"mintFee","inputs":[],"outputs":[{"name":"","type":"uint256","internalType":"uint256"}],"stateMutability":"view"},{"type":"function","name":"mintOrb","inputs":[{"name":"to","type":"address","internalType":"address"}],"outputs":[],"stateMutability":"payable"},{"type":"function","name":"name","inputs":[],"outputs":[{"name":"","type":"string","internalType":"string"}],"stateMutability":"view"},{"type":"function","name":"owner","inputs":[],"outputs":[{"name":"","type":"address","internalType":"address"}],"stateMutability":"view"},{"type":"function","name":"ownerOf","inputs":[{"name":"tokenId","type":"uint256","internalType":"uint256"}],"outputs":[{"name":"","type":"address","internalType":"address"}],"stateMutability":"view"},{"type":"function","name":"renounceOwnership","inputs":[],"outputs":[],"stateMutability":"nonpayable"},{"type":"function","name":"safeTransferFrom","inputs":[{"name":"from","type":"address","internalType":"address"},{"name":"to","type":"address","internalType":"address"},{"name":"tokenId","type":"uint256","internalType":"uint256"}],"outputs":[],"stateMutability":"nonpayable"},{"type":"function","name":"safeTransferFrom","inputs":[{"name":"from","type":"address","internalType":"address"},{"name":"to","type":"address","internalType":"address"},{"name":"tokenId","type":"uint256","internalType":"uint256"},{"name":"data","type":"bytes","internalType":"bytes"}],"outputs":[],"stateMutability":"nonpayable"},{"type":"function","name":"setApprovalForAll","inputs":[{"name":"operator","type":"address","internalType":"address"},{"name":"approved","type":"bool","internalType":"bool"}],"outputs":[],"stateMutability":"nonpayable"},{"type":"function","name":"setMintFee","inputs":[{"name":"_newFee","type":"uint256","internalType":"uint256"}],"outputs":[],"stateMutability":"nonpayable"},{"type":"function","name":"supportsInterface","inputs":[{"name":"interfaceId","type":"bytes4","internalType":"bytes4"}],"outputs":[{"name":"","type":"bool","internalType":"bool"}],"stateMutability":"view"},{"type":"function","name":"symbol","inputs":[],"outputs":[{"name":"","type":"string","internalType":"string"}],"stateMutability":"view"},{"type":"function","name":"tokenURI","inputs":[{"name":"tokenId","type":"uint256","internalType":"uint256"}],"outputs":[{"name":"","type":"string","internalType":"string"}],"stateMutability":"view"},{"type":"function","name":"transferFrom","inputs":[{"name":"from","type":"address","internalType":"address"},{"name":"to","type":"address","internalType":"address"},{"name":"tokenId","type":"uint256","internalType":"uint256"}],"outputs":[],"stateMutability":"nonpayable"},{"type":"function","name":"transferOwnership","inputs":[{"name":"newOwner","type":"address","internalType":"address"}],"outputs":[],"stateMutability":"nonpayable"},{"type":"function","name":"withdraw","inputs":[],"outputs":[],"stateMutability":"nonpayable"},{"type":"event","name":"Approval","inputs":[{"name":"owner","type":"address","indexed":true,"internalType":"address"},{"name":"approved","type":"address","indexed":true,"internalType":"address"},{"name":"tokenId","type":"uint256","indexed":true,"internalType":"uint256"}],"anonymous":false},{"type":"event","name":"ApprovalForAll","inputs":[{"name":"owner","type":"address","indexed":true,"internalType":"address"},{"name":"operator","type":"address","indexed":true,"internalType":"address"},{"name":"approved","type":"bool","indexed":false,"internalType":"bool"}],"anonymous":false},{"type":"event","name":"OwnershipTransferred","inputs":[{"name":"previousOwner","type":"address","indexed":true,"internalType":"address"},{"name":"newOwner","type":"address","indexed":true,"internalType":"address"}],"anonymous":false},{"type":"event","name":"Transfer","inputs":[{"name":"from","type":"address","indexed":true,"internalType":"address"},{"name":"to","type":"address","indexed":true,"internalType":"address"},{"name":"tokenId","type":"uint256","indexed":true,"internalType":"uint256"}],"anonymous":false},{"type":"error","name":"ERC721IncorrectOwner","inputs":[{"name":"sender","type":"address","internalType":"address"},{"name":"tokenId","type":"uint256","internalType":"uint256"},{"name":"owner","type":"address","internalType":"address"}]},{"type":"error","name":"ERC721InsufficientApproval","inputs":[{"name":"operator","type":"address","internalType":"address"},{"name":"tokenId","type":"uint256","internalType":"uint256"}]},{"type":"error","name":"ERC721InvalidApprover","inputs":[{"name":"approver","type":"address","internalType":"address"}]},{"type":"error","name":"ERC721InvalidOperator","inputs":[{"name":"operator","type":"address","internalType":"address"}]},{"type":"error","name":"ERC721InvalidOwner","inputs":[{"name":"owner","type":"address","internalType":"address"}]},{"type":"error","name":"ERC721InvalidReceiver","inputs":[{"name":"receiver","type":"address","internalType":"address"}]},{"type":"error","name":"ERC721InvalidSender","inputs":[{"name":"sender","type":"address","internalType":"address"}]},{"type":"error","name":"ERC721NonexistentToken","inputs":[{"name":"tokenId","type":"uint256","internalType":"uint256"}]},{"type":"error","name":"OwnableInvalidOwner","inputs":[{"name":"owner","type":"address","internalType":"address"}]},{"type":"error","name":"OwnableUnauthorizedAccount","inputs":[{"name":"account","type":"address","internalType":"address"}]}],"bytecode":{"object":"0x6080604052662386f26fc1000060085534801561001a575f5ffd5b50604051612b3b380380612b3b833981810160405281019061003c9190610271565b806040518060400160405280600981526020017f4368616f73204f726200000000000000000000000000000000000000000000008152506040518060400160405280600381526020017f4f52420000000000000000000000000000000000000000000000000000000000815250815f90816100b791906104d9565b5080600190816100c791906104d9565b5050505f73ffffffffffffffffffffffffffffffffffffffff168173ffffffffffffffffffffffffffffffffffffffff160361013a575f6040517f1e4fbdf700000000000000000000000000000000000000000000000000000000815260040161013191906105b7565b60405180910390fd5b6101498161015060201b60201c565b50506105d0565b5f60065f9054906101000a900473ffffffffffffffffffffffffffffffffffffffff1690508160065f6101000a81548173ffffffffffffffffffffffffffffffffffffffff021916908373ffffffffffffffffffffffffffffffffffffffff1602179055508173ffffffffffffffffffffffffffffffffffffffff168173ffffffffffffffffffffffffffffffffffffffff167f8be0079c531659141344cd1fd0a4f28419497f9722a3daafe3b4186f6b6457e060405160405180910390a35050565b5f5ffd5b5f73ffffffffffffffffffffffffffffffffffffffff82169050919050565b5f61024082610217565b9050919050565b61025081610236565b811461025a575f5ffd5b50565b5f8151905061026b81610247565b92915050565b5f6020828403121561028657610285610213565b5b5f6102938482850161025d565b91505092915050565b5f81519050919050565b7f4e487b71000000000000000000000000000000000000000000000000000000005f52604160045260245ffd5b7f4e487b71000000000000000000000000000000000000000000000000000000005f52602260045260245ffd5b5f600282049050600182168061031757607f821691505b60208210810361032a576103296102d3565b5b50919050565b5f819050815f5260205f209050919050565b5f6020601f8301049050919050565b5f82821b905092915050565b5f6008830261038c7fffffffffffffffffffffffffffffffffffffffffffffffffffffffffffffffff82610351565b6103968683610351565b95508019841693508086168417925050509392505050565b5f819050919050565b5f819050919050565b5f6103da6103d56103d0846103ae565b6103b7565b6103ae565b9050919050565b5f819050919050565b6103f3836103c0565b6104076103ff826103e1565b84845461035d565b825550505050565b5f5f905090565b61041e61040f565b6104298184846103ea565b505050565b5b8181101561044c576104415f82610416565b60018101905061042f565b5050565b601f8211156104915761046281610330565b61046b84610342565b8101602085101561047a578190505b61048e61048685610342565b83018261042e565b50505b505050565b5f82821c905092915050565b5f6104b15f1984600802610496565b1980831691505092915050565b5f6104c983836104a2565b9150826002028217905092915050565b6104e28261029c565b67ffffffffffffffff8111156104fb576104fa6102a6565b5b6105058254610300565b610510828285610450565b5f60209050601f831160018114610541575f841561052f578287015190505b61053985826104be565b8655506105a0565b601f19841661054f86610330565b5f5b8281101561057657848901518255600182019150602085019450602081019050610551565b86831015610593578489015161058f601f8916826104a2565b8355505b6001600288020188555050505b505050505050565b6105b181610236565b82525050565b5f6020820190506105ca5f8301846105a8565b92915050565b61255e806105dd5f395ff3fe60806040526004361061011e575f3560e01c8063715018a61161009f578063c87b56dd11610063578063c87b56dd146103ae578063d2bb333e146103ea578063e985e9c514610406578063eddd0d9c14610442578063f2fde38b1461046a5761011e565b8063715018a6146102f45780638da5cb5b1461030a57806395d89b4114610334578063a22cb4651461035e578063b88d4fde146103865761011e565b806323b872dd116100e657806323b872dd146102165780633ccfd60b1461023e57806342842e0e146102545780636352211e1461027c57806370a08231146102b85761011e565b806301ffc9a71461012257806306fdde031461015e578063081812fc14610188578063095ea7b3146101c457806313966db5146101ec575b5f5ffd5b34801561012d575f5ffd5b5061014860048036038101906101439190611bf5565b610492565b6040516101559190611c3a565b60405180910390f35b348015610169575f5ffd5b50610172610573565b60405161017f9190611cc3565b60405180910390f35b348015610193575f5ffd5b506101ae60048036038101906101a99190611d16565b610602565b6040516101bb9190611d80565b60405180910390f35b3480156101cf575f5ffd5b506101ea60048036038101906101e59190611dc3565b61061d565b005b3480156101f7575f5ffd5b50610200610633565b60405161020d9190611e10565b60405180910390f35b348015610221575f5ffd5b5061023c60048036038101906102379190611e29565b610639565b005b348015610249575f5ffd5b50610252610738565b005b34801561025f575f5ffd5b5061027a60048036038101906102759190611e29565b6107f2565b005b348015610287575f5ffd5b506102a2600480360381019061029d9190611d16565b610811565b6040516102af9190611d80565b60405180910390f35b3480156102c3575f5ffd5b506102de60048036038101906102d99190611e79565b610822565b6040516102eb9190611e10565b60405180910390f35b3480156102ff575f5ffd5b506103086108d8565b005b348015610315575f5ffd5b5061031e6108eb565b60405161032b9190611d80565b60405180910390f35b34801561033f575f5ffd5b50610348610913565b6040516103559190611cc3565b60405180910390f35b348015610369575f5ffd5b50610384600480360381019061037f9190611ece565b6109a3565b005b348015610391575f5ffd5b506103ac60048036038101906103a79190612038565b6109b9565b005b3480156103b9575f5ffd5b506103d460048036038101906103cf9190611d16565b6109de565b6040516103e19190611cc3565b60405180910390f35b61040460048036038101906103ff9190611e79565b610a44565b005b348015610411575f5ffd5b5061042c600480360381019061042791906120b8565b610af4565b6040516104399190611c3a565b60405180910390f35b34801561044d575f5ffd5b5061046860048036038101906104639190611d16565b610b82565b005b348015610475575f5ffd5b50610490600480360381019061048b9190611e79565b610b94565b005b5f7f80ac58cd000000000000000000000000000000000000000000000000000000007bffffffffffffffffffffffffffffffffffffffffffffffffffffffff1916827bffffffffffffffffffffffffffffffffffffffffffffffffffffffff1916148061055c57507f5b5e139f000000000000000000000000000000000000000000000000000000007bffffffffffffffffffffffffffffffffffffffffffffffffffffffff1916827bffffffffffffffffffffffffffffffffffffffffffffffffffffffff1916145b8061056c575061056b82610c18565b5b9050919050565b60605f805461058190612123565b80601f01602080910402602001604051908101604052809291908181526020018280546105ad90612123565b80156105f85780601f106105cf576101008083540402835291602001916105f8565b820191905f5260205f20905b8154815290600101906020018083116105db57829003601f168201915b5050505050905090565b5f61060c82610c81565b5061061682610d07565b9050919050565b61062f828261062a610d40565b610d47565b5050565b60085481565b5f73ffffffffffffffffffffffffffffffffffffffff168273ffffffffffffffffffffffffffffffffffffffff16036106a9575f6040517f64a0ae920000000000000000000000000000000000000000000000000000000081526004016106a09190611d80565b60405180910390fd5b5f6106bc83836106b7610d40565b610d59565b90508373ffffffffffffffffffffffffffffffffffffffff168173ffffffffffffffffffffffffffffffffffffffff1614610732578382826040517f64283d7b00000000000000000000000000000000000000000000000000000000815260040161072993929190612153565b60405180910390fd5b50505050565b610740610f64565b5f6107496108eb565b73ffffffffffffffffffffffffffffffffffffffff164760405161076c906121b5565b5f6040518083038185875af1925050503d805f81146107a6576040519150601f19603f3d011682016040523d82523d5f602084013e6107ab565b606091505b50509050806107ef576040517f08c379a00000000000000000000000000000000000000000000000000000000081526004016107e690612213565b60405180910390fd5b50565b61080c83838360405180602001604052805f8152506109b9565b505050565b5f61081b82610c81565b9050919050565b5f5f73ffffffffffffffffffffffffffffffffffffffff168273ffffffffffffffffffffffffffffffffffffffff1603610893575f6040517f89c62b6400000000000000000000000000000000000000000000000000000000815260040161088a9190611d80565b60405180910390fd5b60035f8373ffffffffffffffffffffffffffffffffffffffff1673ffffffffffffffffffffffffffffffffffffffff1681526020019081526020015f20549050919050565b6108e0610f64565b6108e95f610feb565b565b5f60065f9054906101000a900473ffffffffffffffffffffffffffffffffffffffff16905090565b60606001805461092290612123565b80601f016020809104026020016040519081016040528092919081815260200182805461094e90612123565b80156109995780601f1061097057610100808354040283529160200191610999565b820191905f5260205f20905b81548152906001019060200180831161097c57829003601f168201915b5050505050905090565b6109b56109ae610d40565b83836110ae565b5050565b6109c4848484610639565b6109d86109cf610d40565b85858585611217565b50505050565b60606109e982610c81565b505f6109f36113c3565b90505f815111610a115760405180602001604052805f815250610a3c565b80610a1b846113d9565b604051602001610a2c92919061226b565b6040516020818303038152906040525b915050919050565b600854341015610a89576040517f08c379a0000000000000000000000000000000000000000000000000000000008152600401610a80906122fe565b60405180910390fd5b5f600754905060075f815480929190610aa190612349565b9190505550610ab082826114a3565b610af06040518060400160405280601c81526020017f4d696e746564204f72622023257320746f20616464726573732025730000000081525082846114c0565b5050565b5f60055f8473ffffffffffffffffffffffffffffffffffffffff1673ffffffffffffffffffffffffffffffffffffffff1681526020019081526020015f205f8373ffffffffffffffffffffffffffffffffffffffff1673ffffffffffffffffffffffffffffffffffffffff1681526020019081526020015f205f9054906101000a900460ff16905092915050565b610b8a610f64565b8060088190555050565b610b9c610f64565b5f73ffffffffffffffffffffffffffffffffffffffff168173ffffffffffffffffffffffffffffffffffffffff1603610c0c575f6040517f1e4fbdf7000000000000000000000000000000000000000000000000000000008152600401610c039190611d80565b60405180910390fd5b610c1581610feb565b50565b5f7f01ffc9a7000000000000000000000000000000000000000000000000000000007bffffffffffffffffffffffffffffffffffffffffffffffffffffffff1916827bffffffffffffffffffffffffffffffffffffffffffffffffffffffff1916149050919050565b5f5f610c8c8361155f565b90505f73ffffffffffffffffffffffffffffffffffffffff168173ffffffffffffffffffffffffffffffffffffffff1603610cfe57826040517f7e273289000000000000000000000000000000000000000000000000000000008152600401610cf59190611e10565b60405180910390fd5b80915050919050565b5f60045f8381526020019081526020015f205f9054906101000a900473ffffffffffffffffffffffffffffffffffffffff169050919050565b5f33905090565b610d548383836001611598565b505050565b5f5f610d648461155f565b90505f73ffffffffffffffffffffffffffffffffffffffff168373ffffffffffffffffffffffffffffffffffffffff1614610da557610da4818486611757565b5b5f73ffffffffffffffffffffffffffffffffffffffff168173ffffffffffffffffffffffffffffffffffffffff1614610e3057610de45f855f5f611598565b600160035f8373ffffffffffffffffffffffffffffffffffffffff1673ffffffffffffffffffffffffffffffffffffffff1681526020019081526020015f205f82825403925050819055505b5f73ffffffffffffffffffffffffffffffffffffffff168573ffffffffffffffffffffffffffffffffffffffff1614610eaf57600160035f8773ffffffffffffffffffffffffffffffffffffffff1673ffffffffffffffffffffffffffffffffffffffff1681526020019081526020015f205f82825401925050819055505b8460025f8681526020019081526020015f205f6101000a81548173ffffffffffffffffffffffffffffffffffffffff021916908373ffffffffffffffffffffffffffffffffffffffff160217905550838573ffffffffffffffffffffffffffffffffffffffff168273ffffffffffffffffffffffffffffffffffffffff167fddf252ad1be2c89b69c2b068fc378daa952ba7f163c4a11628f55a4df523b3ef60405160405180910390a4809150509392505050565b610f6c610d40565b73ffffffffffffffffffffffffffffffffffffffff16610f8a6108eb565b73ffffffffffffffffffffffffffffffffffffffff1614610fe957610fad610d40565b6040517f118cdaa7000000000000000000000000000000000000000000000000000000008152600401610fe09190611d80565b60405180910390fd5b565b5f60065f9054906101000a900473ffffffffffffffffffffffffffffffffffffffff1690508160065f6101000a81548173ffffffffffffffffffffffffffffffffffffffff021916908373ffffffffffffffffffffffffffffffffffffffff1602179055508173ffffffffffffffffffffffffffffffffffffffff168173ffffffffffffffffffffffffffffffffffffffff167f8be0079c531659141344cd1fd0a4f28419497f9722a3daafe3b4186f6b6457e060405160405180910390a35050565b5f73ffffffffffffffffffffffffffffffffffffffff168273ffffffffffffffffffffffffffffffffffffffff160361111e57816040517f5b08ba180000000000000000000000000000000000000000000000000000000081526004016111159190611d80565b60405180910390fd5b8060055f8573ffffffffffffffffffffffffffffffffffffffff1673ffffffffffffffffffffffffffffffffffffffff1681526020019081526020015f205f8473ffffffffffffffffffffffffffffffffffffffff1673ffffffffffffffffffffffffffffffffffffffff1681526020019081526020015f205f6101000a81548160ff0219169083151502179055508173ffffffffffffffffffffffffffffffffffffffff168373ffffffffffffffffffffffffffffffffffffffff167f17307eab39ab6107e8899845ad3d59bd9653f200f220920489ca2b5937696c318360405161120a9190611c3a565b60405180910390a3505050565b5f8373ffffffffffffffffffffffffffffffffffffffff163b11156113bc578273ffffffffffffffffffffffffffffffffffffffff1663150b7a02868685856040518563ffffffff1660e01b815260040161127594939291906123e2565b6020604051808303815f875af19250505080156112b057506040513d601f19601f820116820180604052508101906112ad9190612440565b60015b611331573d805f81146112de576040519150601f19603f3d011682016040523d82523d5f602084013e6112e3565b606091505b505f81510361132957836040517f64a0ae920000000000000000000000000000000000000000000000000000000081526004016113209190611d80565b60405180910390fd5b805160208201fd5b63150b7a0260e01b7bffffffffffffffffffffffffffffffffffffffffffffffffffffffff1916817bffffffffffffffffffffffffffffffffffffffffffffffffffffffff1916146113ba57836040517f64a0ae920000000000000000000000000000000000000000000000000000000081526004016113b19190611d80565b60405180910390fd5b505b5050505050565b606060405180602001604052805f815250905090565b60605f60016113e78461181a565b0190505f8167ffffffffffffffff81111561140557611404611f14565b5b6040519080825280601f01601f1916602001820160405280156114375781602001600182028036833780820191505090505b5090505f82602083010190505b600115611498578080600190039150507f3031323334353637383961626364656600000000000000000000000000000000600a86061a8153600a858161148d5761148c61246b565b5b0494505f8503611444575b819350505050919050565b6114bc828260405180602001604052805f81525061196b565b5050565b61155a8383836040516024016114d893929190612498565b6040516020818303038152906040527f1c7ec448000000000000000000000000000000000000000000000000000000007bffffffffffffffffffffffffffffffffffffffffffffffffffffffff19166020820180517bffffffffffffffffffffffffffffffffffffffffffffffffffffffff838183161783525050505061198e565b505050565b5f60025f8381526020019081526020015f205f9054906101000a900473ffffffffffffffffffffffffffffffffffffffff169050919050565b80806115d057505f73ffffffffffffffffffffffffffffffffffffffff168273ffffffffffffffffffffffffffffffffffffffff1614155b15611702575f6115df84610c81565b90505f73ffffffffffffffffffffffffffffffffffffffff168373ffffffffffffffffffffffffffffffffffffffff161415801561164957508273ffffffffffffffffffffffffffffffffffffffff168173ffffffffffffffffffffffffffffffffffffffff1614155b801561165c575061165a8184610af4565b155b1561169e57826040517fa9fbf51f0000000000000000000000000000000000000000000000000000000081526004016116959190611d80565b60405180910390fd5b811561170057838573ffffffffffffffffffffffffffffffffffffffff168273ffffffffffffffffffffffffffffffffffffffff167f8c5be1e5ebec7d5bd14f71427d1e84f3dd0314c0f7b2291e5b200ac8c7c3b92560405160405180910390a45b505b8360045f8581526020019081526020015f205f6101000a81548173ffffffffffffffffffffffffffffffffffffffff021916908373ffffffffffffffffffffffffffffffffffffffff16021790555050505050565b6117628383836119a8565b611815575f73ffffffffffffffffffffffffffffffffffffffff168373ffffffffffffffffffffffffffffffffffffffff16036117d657806040517f7e2732890000000000000000000000000000000000000000000000000000000081526004016117cd9190611e10565b60405180910390fd5b81816040517f177e802f00000000000000000000000000000000000000000000000000000000815260040161180c9291906124d4565b60405180910390fd5b505050565b5f5f5f90507a184f03e93ff9f4daa797ed6e38ed64bf6a1f0100000000000000008310611876577a184f03e93ff9f4daa797ed6e38ed64bf6a1f010000000000000000838161186c5761186b61246b565b5b0492506040810190505b6d04ee2d6d415b85acef810000000083106118b3576d04ee2d6d415b85acef810000000083816118a9576118a861246b565b5b0492506020810190505b662386f26fc1000083106118e257662386f26fc1000083816118d8576118d761246b565b5b0492506010810190505b6305f5e100831061190b576305f5e10083816119015761190061246b565b5b0492506008810190505b61271083106119305761271083816119265761192561246b565b5b0492506004810190505b6064831061195357606483816119495761194861246b565b5b0492506002810190505b600a8310611962576001810190505b80915050919050565b6119758383611a68565b611989611980610d40565b5f858585611217565b505050565b6119a58161199d611b5b611b7a565b63ffffffff16565b50565b5f5f73ffffffffffffffffffffffffffffffffffffffff168373ffffffffffffffffffffffffffffffffffffffff1614158015611a5f57508273ffffffffffffffffffffffffffffffffffffffff168473ffffffffffffffffffffffffffffffffffffffff161480611a205750611a1f8484610af4565b5b80611a5e57508273ffffffffffffffffffffffffffffffffffffffff16611a4683610d07565b73ffffffffffffffffffffffffffffffffffffffff16145b5b90509392505050565b5f73ffffffffffffffffffffffffffffffffffffffff168273ffffffffffffffffffffffffffffffffffffffff1603611ad8575f6040517f64a0ae92000000000000000000000000000000000000000000000000000000008152600401611acf9190611d80565b60405180910390fd5b5f611ae483835f610d59565b90505f73ffffffffffffffffffffffffffffffffffffffff168173ffffffffffffffffffffffffffffffffffffffff1614611b56575f6040517f73c6ac6e000000000000000000000000000000000000000000000000000000008152600401611b4d9190611d80565b60405180910390fd5b505050565b5f6a636f6e736f6c652e6c6f6790505f5f835160208501845afa505050565b611b85819050919050565b611b8d6124fb565b565b5f604051905090565b5f5ffd5b5f5ffd5b5f7fffffffff0000000000000000000000000000000000000000000000000000000082169050919050565b611bd481611ba0565b8114611bde575f5ffd5b50565b5f81359050611bef81611bcb565b92915050565b5f60208284031215611c0a57611c09611b98565b5b5f611c1784828501611be1565b91505092915050565b5f8115159050919050565b611c3481611c20565b82525050565b5f602082019050611c4d5f830184611c2b565b92915050565b5f81519050919050565b5f82825260208201905092915050565b8281835e5f83830152505050565b5f601f19601f8301169050919050565b5f611c9582611c53565b611c9f8185611c5d565b9350611caf818560208601611c6d565b611cb881611c7b565b840191505092915050565b5f6020820190508181035f830152611cdb8184611c8b565b905092915050565b5f819050919050565b611cf581611ce3565b8114611cff575f5ffd5b50565b5f81359050611d1081611cec565b92915050565b5f60208284031215611d2b57611d2a611b98565b5b5f611d3884828501611d02565b91505092915050565b5f73ffffffffffffffffffffffffffffffffffffffff82169050919050565b5f611d6a82611d41565b9050919050565b611d7a81611d60565b82525050565b5f602082019050611d935f830184611d71565b92915050565b611da281611d60565b8114611dac575f5ffd5b50565b5f81359050611dbd81611d99565b92915050565b5f5f60408385031215611dd957611dd8611b98565b5b5f611de685828601611daf565b9250506020611df785828601611d02565b9150509250929050565b611e0a81611ce3565b82525050565b5f602082019050611e235f830184611e01565b92915050565b5f5f5f60608486031215611e4057611e3f611b98565b5b5f611e4d86828701611daf565b9350506020611e5e86828701611daf565b9250506040611e6f86828701611d02565b9150509250925092565b5f60208284031215611e8e57611e8d611b98565b5b5f611e9b84828501611daf565b91505092915050565b611ead81611c20565b8114611eb7575f5ffd5b50565b5f81359050611ec881611ea4565b92915050565b5f5f60408385031215611ee457611ee3611b98565b5b5f611ef185828601611daf565b9250506020611f0285828601611eba565b9150509250929050565b5f5ffd5b5f5ffd5b7f4e487b71000000000000000000000000000000000000000000000000000000005f52604160045260245ffd5b611f4a82611c7b565b810181811067ffffffffffffffff82111715611f6957611f68611f14565b5b80604052505050565b5f611f7b611b8f565b9050611f878282611f41565b919050565b5f67ffffffffffffffff821115611fa657611fa5611f14565b5b611faf82611c7b565b9050602081019050919050565b828183375f83830152505050565b5f611fdc611fd784611f8c565b611f72565b905082815260208101848484011115611ff857611ff7611f10565b5b612003848285611fbc565b509392505050565b5f82601f83011261201f5761201e611f0c565b5b813561202f848260208601611fca565b91505092915050565b5f5f5f5f608085870312156120505761204f611b98565b5b5f61205d87828801611daf565b945050602061206e87828801611daf565b935050604061207f87828801611d02565b925050606085013567ffffffffffffffff8111156120a05761209f611b9c565b5b6120ac8782880161200b565b91505092959194509250565b5f5f604083850312156120ce576120cd611b98565b5b5f6120db85828601611daf565b92505060206120ec85828601611daf565b9150509250929050565b7f4e487b71000000000000000000000000000000000000000000000000000000005f52602260045260245ffd5b5f600282049050600182168061213a57607f821691505b60208210810361214d5761214c6120f6565b5b50919050565b5f6060820190506121665f830186611d71565b6121736020830185611e01565b6121806040830184611d71565b949350505050565b5f81905092915050565b50565b5f6121a05f83612188565b91506121ab82612192565b5f82019050919050565b5f6121bf82612195565b9150819050919050565b7f4368616f734f72623a205769746864726177616c206661696c65642e000000005f82015250565b5f6121fd601c83611c5d565b9150612208826121c9565b602082019050919050565b5f6020820190508181035f83015261222a816121f1565b9050919050565b5f81905092915050565b5f61224582611c53565b61224f8185612231565b935061225f818560208601611c6d565b80840191505092915050565b5f612276828561223b565b9150612282828461223b565b91508190509392505050565b7f4368616f734f72623a20496e73756666696369656e742066656520746f206d695f8201527f6e742e0000000000000000000000000000000000000000000000000000000000602082015250565b5f6122e8602383611c5d565b91506122f38261228e565b604082019050919050565b5f6020820190508181035f830152612315816122dc565b9050919050565b7f4e487b71000000000000000000000000000000000000000000000000000000005f52601160045260245ffd5b5f61235382611ce3565b91507fffffffffffffffffffffffffffffffffffffffffffffffffffffffffffffffff82036123855761238461231c565b5b600182019050919050565b5f81519050919050565b5f82825260208201905092915050565b5f6123b482612390565b6123be818561239a565b93506123ce818560208601611c6d565b6123d781611c7b565b840191505092915050565b5f6080820190506123f55f830187611d71565b6124026020830186611d71565b61240f6040830185611e01565b818103606083015261242181846123aa565b905095945050505050565b5f8151905061243a81611bcb565b92915050565b5f6020828403121561245557612454611b98565b5b5f6124628482850161242c565b91505092915050565b7f4e487b71000000000000000000000000000000000000000000000000000000005f52601260045260245ffd5b5f6060820190508181035f8301526124b08186611c8b565b90506124bf6020830185611e01565b6124cc6040830184611d71565b949350505050565b5f6040820190506124e75f830185611d71565b6124f46020830184611e01565b9392505050565b7f4e487b71000000000000000000000000000000000000000000000000000000005f52605160045260245ffdfea2646970667358221220e95c2979159ed128d0c22460265241c85b43cf4a6394eec86b06448b6e4a26ed64736f6c634300081c0033","linkReferences":{}},"methodIdentifiers":{"approve(address,uint256)":"095ea7b3","balanceOf(address)":"70a08231","getApproved(uint256)":"081812fc","isApprovedForAll(address,address)":"e985e9c5","mintFee()":"13966db5","mintOrb(address)":"d2bb333e","name()":"06fdde03","owner()":"8da5cb5b","ownerOf(uint256)":"6352211e","renounceOwnership()":"715018a6","safeTransferFrom(address,address,uint256)":"42842e0e","safeTransferFrom(address,address,uint256,bytes)":"b88d4fde","setApprovalForAll(address,bool)":"a22cb465","setMintFee(uint256)":"eddd0d9c","supportsInterface(bytes4)":"01ffc9a7","symbol()":"95d89b41","tokenURI(uint256)":"c87b56dd","transferFrom(address,address,uint256)":"23b872dd","transferOwnership(address)":"f2fde38b","withdraw()":"3ccfd60b"},"id":16}